:100000000C9434000C9451000C9451000C94510049
:100010000C9451000C9451000C9451000C9451001C
:100020000C9451000C9451000C9451000C9451000C
:100030000C9451000C9451000C9451000C945100FC
:100040000C9451000C9451000C9451000C945100EC
:100050000C9451000C9451000C9451000C945100DC
:100060000C9451000C94510011241FBECFEFD4E02A
:10007000DEBFCDBF11E0A0E0B1E0E8E7F0E102C0F3
:1000800005900D92A436B107D9F711E0A4E6B1E0CE
:1000900001C01D92A83AB107E1F70E9423020C9417
:1000A0003A080C940000682FF89489E691E00E94C9
:1000B0001F0481E080937401109264011092650125
:1000C000109266011092670108951092740178945D
:1000D0000895EF92FF920F931F93E0906401F090C8
:1000E00065010091660110916701C801B70124EF15
:1000F00031E040E050E00E94DF07611571058105A5
:10010000910571F00894E11CF11C011D111DE09294
:100110006401F092650100936601109367011AC0B3
:100120000E942D0380E091E00E9453030E94380357
:1001300081E090E0A0E0B0E08093640190936501DD
:10014000A0936601B09367018FE891E00197F1F702
:1001500000C000001F910F91FF90EF900895109242
:100160007501109276011092770110927801109229
:10017000790110927A0110927B0110927C01109209
:100180007D0110927E0110927F01109280013898BB
:100190003A983998409A429A419A089589E691E0AE
:1001A0000E9441061092640110926501109266014E
:1001B00010926701089589E691E00E942806109246
:1001C0006401109265011092660110926701089512
:1001D00089E691E00E949E051092640110926501EB
:1001E0001092660110926701089589E691E00E94DD
:1001F0001F06109264011092650110926601109220
:100200006701089580917401882321F481E00E94A0
:10021000530004C089E691E00E94660610926401D2
:100220001092650110926601109267010895809105
:100230007401882319F40E94530002C00E946500D3
:10024000109264011092650110926601109267018C
:100250000895309915C08091750190917601A09113
:100260007701B0917801B7FD0BC00196A11DB11DBA
:100270008093750190937601A0937701B0937801F4
:10028000329915C08091790190917A01A0917B01FA
:10029000B0917C01B7FD0BC00196A11DB11D8093EB
:1002A000790190937A01A0937B01B0937C013199FD
:1002B00015C080917D0190917E01A0917F01B09148
:1002C0008001B7FD0BC00196A11DB11D80937D017A
:1002D00090937E01A0937F01B0938001809175017E
:1002E00090917601A0917701B0917801893E23E049
:1002F000920720E0A20720E0B2076CF00E94F50010
:100300008FEF9FEFDC018093750190937601A093AE
:100310007701B09378018091790190917A01A09151
:100320007B01B0917C01893E23E0920720E0A20787
:1003300020E0B2076CF00E9402018FEF9FEFDC011A
:100340008093790190937A01A0937B01B0937C0113
:1003500080917D0190917E01A0917F01B0918001FB
:10036000893E23E0920720E0A20720E0B2076CF06C
:100370000E9417018FEF9FEFDC0180937D01909326
:100380007E01A0937F01B0938001309B1DC08091BE
:10039000750190917601A0917701B0917801019754
:1003A000A109B109873E23E0920720E0A20720E0DF
:1003B000B20710F40E94CE001092750110927601DF
:1003C0001092770110927801329B1DC080917901C3
:1003D00090917A01A0917B01B0917C010197A109D4
:1003E000B109873E23E0920720E0A20720E0B20790
:1003F00010F40E94DB001092790110927A011092A1
:100400007B0110927C01319B1DC080917D019091F8
:100410007E01A0917F01B09180010197A109B109EE
:10042000873E23E0920720E0A20720E0B20710F405
:100430000E94E80010927D0110927E0110927F01CF
:100440001092800108956F927F928F929F92AF9247
:10045000BF92CF92DF92EF92FF920F931F938FEF95
:1004600084B90E94CB020E94AF0089E691E061E866
:1004700071E00E941B045C9A9CE2A92E91E0B92EC7
:10048000C12CD12C81E0682E712C812C912C0E94E2
:1004900029018FE99FE00197F1F700C000008091EA
:1004A0007401882319F0813091F703C00E9469001C
:1004B000EECFE0906401F09065010091660110912B
:1004C0006701C801B701A60195010E94DF07611508
:1004D00071058105910571F00894E11CF11C011D65
:1004E000111DE0926401F092650100936601109382
:1004F0006701CDCF89E691E00E94540560926401C6
:10050000709265018092660190926701C0CF5E98FB
:100510009BB1907F9BB92BB1982F92959F70922B96
:100520009BB95D9AEFE9FFE03197F1F700C0000059
:100530005D98EFEBFDE53197F1F700C000009BB14E
:10054000907F9BB99BB18F70892B8BB95D9A8FE996
:100550009FE00197F1F700C000005D9808955F9A51
:100560000E94870208955F980E9487028FEB9DE5A5
:100570000197F1F700C000000895803118F0805114
:1005800090EC01C090E8890F0E94B302089581E0C9
:100590000E94B30208958FEF8AB91BB88FEF96E7D8
:1005A000A1E081509040A040E1F700C000005F98BA
:1005B0005E988BB1807F8BB98BB183608BB9AFE1D3
:1005C000BEE41197F1F700C000008BB1807F8BB9BA
:1005D0008BB183608BB987EE93E00197F1F700C090
:1005E00000008BB1807F8BB98BB183608BB9AFE199
:1005F000BEE41197F1F700C000008BB1807F8BB98A
:10060000599A5D9A8FEB9DE50197F1F700C00000C4
:100610005D9888E20E94B30288E00E94B30281E004
:100620000E94B30286E00E94B3028CE00E94B302F3
:100630000895EF92FF92CF93DF93E82EE7017E01BA
:10064000F92EE70102C00E94AF0289918823D9F7F1
:10065000DF91CF91FF90EF90089588E891E060E2FC
:1006600070E040E250E00E94010810926801089595
:10067000CF93DF9380E00E94BD02C8E8D1E089916A
:100680000E94AF0281E0C839D807C9F780E10E9413
:10069000BD0289910E94AF0281E0C83AD807C9F72C
:1006A000DF91CF910895282F392FD9010AC0909159
:1006B0006801E92FF0E0E857FE4F80839F5F909339
:1006C00068018D91882399F70895809368010895B2
:1006D0000F931F93DF93CF9300D000D000D0CDB7FE
:1006E000DEB7009761F480916801E82FF0E0E857E9
:1006F000FE4F90E390838F5F8093680136C097FF31
:100700000EC020916801E22FF0E0E857FE4F3DE275
:1007100030832F5F20936801909581959F4FFE0154
:10072000319620E030E00AE010E0B8010E94CC07EA
:1007300081932F5F3F4FCB010097B9F7609168011C
:10074000CE010196FC01E20FF31F462F08C0A42F33
:10075000B0E0A857BE4F5291505D5C934F5FE817D1
:10076000F907A9F7260F2093680126960FB6F8948B
:10077000DEBF0FBECDBFCF91DF911F910F910895C6
:10078000EF92FF920F931F937B018C0120E030E0EA
:10079000A9010E94B0069091680187FF0EC0E92F61
:1007A000F0E0E857FE4F8DE280839F5F90936801F1
:1007B00017FB109517F9109509C0E92FF0E0E857DD
:1007C000FE4F8BE280839F5F90936801C801B70161
:1007D0000E94B406DC01CB010E946803809168018D
:1007E000E82FF0E0E857FE4F9EE290838F5F809302
:1007F0006801C801B70120E030E040E251E40E9406
:100800002D070E94B406CB016AE070E00E94B80791
:100810000E9468031F910F91FF90EF90089583301D
:1008200011F48BE0089587E00895833011F482E09D
:10083000089583E00895FC01728761870895FC01A3
:10084000608311821282138216820895CF93DF9300
:10085000EC010E942D0381E00E94650386E091E097
:100860000E94530381E10E94650381E191E00E94AF
:10087000530389E10E94650384E191E00E945303E0
:100880008981882319F0813031F402C080E101C0F0
:1008900088E10E94650388E191E00E9453030E9471
:1008A0003803DF91CF910895CF93DF93EC010E943D
:1008B0002D0381E00E9465038AE191E00E945303C9
:1008C0008A81833071F089E00E94650380E291E0C3
:1008D0000E94530381E10E94650386E291E00E9439
:1008E00053038981813039F0813018F0823041F42E
:1008F00004C080E003C088E001C080E10E9465037D
:1009000088E191E00E9453030E943803DF91CF9168
:100910000895CF93DF93EC0189859A8598878F831B
:1009200081E09E81911180E08E830E942D038C8155
:10093000843008F04BC08E81882319F48D8181307A
:1009400069F081E00E9465038CE291E00E9453030C
:10095000EF81F885808190E00E9468038E81882372
:1009600019F48D81823069F089E00E94650381E38A
:1009700091E00E945303EF81F885818190E00E940D
:1009800068038E81882319F48D81833069F081E1B9
:100990000E94650385E391E00E945303EF81F8858F
:1009A000828190E00E9468038E81882321F48D81EA
:1009B000843009F446C089E10E94650388E391E030
:1009C0000E945303EF81F885838138C08830C8F5D1
:1009D0008E81882319F48D81853069F081E00E9431
:1009E00065038CE391E00E945303EF81F8858481D5
:1009F00090E00E9468038E81882319F48D818630EF
:100A000069F089E00E94650380E491E00E9453034D
:100A1000EF81F885858190E00E9468038E818823AC
:100A200019F48D81873069F081E10E94650384E4C7
:100A300091E00E945303EF81F885868190E00E9447
:100A400068038C81853011F1863070F4823001F1B9
:100A5000833028F48823C1F08130E9F417C0833053
:100A600089F08430C1F410C0883071F0893028F4E6
:100A7000863071F0873079F405C0893039F08A30DA
:100A800051F406C088E105C080E003C088E001C0E1
:100A900080E10E94650388E191E00E9453030E9477
:100AA0003803DF91CF910895FC012081222319F0B2
:100AB000213031F403C00E94890408950E94260465
:100AC0000895CF93DF93EC010E942D0381E00E94F3
:100AD000650388E491E00E94530389E00E94650366
:100AE0008FE491E00E94530381E10E94650386E553
:100AF00091E00E94530389E10E9465038DE591E036
:100B00000E9453038981813049F0813028F082307E
:100B100039F0833051F406C080E005C088E003C09E
:100B200080E101C088E10E94650388E191E00E94B4
:100B300053030E943803DF91CF910895FC01808117
:100B4000882339F0813089F4818592850E94A3063B
:100B500008958581882321F484818F5F858308959A
:100B60001582818592850E949C060895FC0144238C
:100B700011F481E001C08AE09581913041F4A781B0
:100B8000B085869F202D11249C91920F9C93958176
:100B9000923061F4A781B085869F202D1124119693
:100BA0009C911197920F11969C9311979581933078
:100BB00061F4A781B085869F202D112412969C9107
:100BC0001297920F12969C9312979581943061F42C
:100BD000A781B085869F202D112413969C91139791
:100BE000920F13969C9313979581953061F4A7818A
:100BF000B085869F202D112414969C911497920FF6
:100C000014969C9314979581963061F4A781B085D2
:100C1000869F202D112415969C911597920F15965D
:100C20009C9315979581973049F40780F085E02DC6
:100C3000869F602D11249681960F96830895FC015E
:100C40002081222321F46FEF41E00E94B605089530
:100C5000FC0180818823A1F48581882361F484814B
:100C60008F5F84839281933011F49BE001C097E001
:100C7000891709F41482CF0161E040E00E94B605B3
:100C80000895FC018081882359F08130F1F481813D
:100C9000882311F482E081838181815081830895CA
:100CA0008581882369F48481882339F482818330A3
:100CB00011F48BE001C087E08483848181508483B8
:100CC000CF016FEF40E00E94B6050895FC018081DE
:100CD000882341F0823059F481E0808311821482AC
:100CE00015820895CF0161E041E00E94B6050895A4
:100CF000CF93DF93EC010E94C70282E088831982C0
:100D0000DF91CF910895FC011082118262834383A9
:100D1000148215820895FC0181E08083118214827F
:100D20001582089560E070E047E050E00E940808F6
:100D300008950E949206089560E070E047E050E058
:100D40000E9418080895FC0181E0808381838283DA
:100D50008383848385838683CF010E949C060895C4
:100D60002FD008F481E0089557D088F09F5790F075
:100D7000B92F9927B751A0F0D1F0660F771F881FC0
:100D8000991F1AF0BA95C9F712C0B13081F05ED040
:100D9000B1E008955BC0672F782F8827B85F39F0DE
:100DA000B93FCCF3869577956795B395D9F73EF41F
:100DB00090958095709561957F4F8F4F9F4F0895C7
:100DC000990F0008550FAA0BE0E8FEEF161617065C
:100DD000E807F907C0F012161306E407F50798F0C4
:100DE000621B730B840B950B39F40A2661F0232BDD
:100DF000242B252B21F408950A2609F4A140A69559
:100E00008FEF811D811D089557FD9058440F551F88
:100E100059F05F3F71F04795880F97FB991F61F07C
:100E20009F3F79F087950895121613061406551FF3
:100E3000F2CF4695F1DF08C0161617061806991F5F
:100E4000F1CF86957105610508940895E894BB2754
:100E500066277727CB0197F908950BD078C069D022
:100E600028F06ED018F0952309F05AC05FC0112405
:100E7000EECFCADFA0F3959FD1F3950F50E0551F39
:100E8000629FF001729FBB27F00DB11D639FAA27DF
:100E9000F00DB11DAA1F649F6627B00DA11D661F2E
:100EA000829F2227B00DA11D621F739FB00DA11D4F
:100EB000621F839FA00D611D221F749F3327A00D09
:100EC000611D231F849F600D211D822F762F6A2FA5
:100ED00011249F5750408AF0E1F088234AF0EE0F2A
:100EE000FF1FBB1F661F771F881F91505040A9F737
:100EF0009E3F510570F014C0AACF5F3FECF3983EBF
:100F0000DCF3869577956795B795F795E7959F5F9D
:100F1000C1F7FE2B880F911D9695879597F9089537
:100F200097F99F6780E870E060E008959FEF80EC9C
:100F3000089500240A94161617061806090608953F
:100F400000240A9412161306140605060895092EA5
:100F50000394000C11F4882352F0BB0F40F4BF2B14
:100F600011F460FF04C06F5F7F4F8F4F9F4F089554
:100F7000AA1BBB1B51E107C0AA1FBB1FA617B707BF
:100F800010F0A61BB70B881F991F5A95A9F78095DB
:100F90009095BC01CD01089597FB092E07260AD034
:100FA00077FD04D0E5DF06D000201AF47095619536
:100FB0007F4F0895F6F7909581959F4F0895A1E290
:100FC0001A2EAA1BBB1BFD010DC0AA1FBB1FEE1FC3
:100FD000FF1FA217B307E407F50720F0A21BB30B0E
:100FE000E40BF50B661F771F881F991F1A9469F78A
:100FF00060957095809590959B01AC01BD01CF01E6
:101000000895DC0101C06D9341505040E0F7089510
:10101000DC01CB01FC01F999FECF06C0F2BDE1BDB8
:10102000F89A319600B40D9241505040B8F70895A7
:10103000DC01A40FB51F4150504048F0CB01840F94
:10104000951F2E910E94290841505040D0F70895D5
:10105000262FF999FECF92BD81BDF89A019700B471
:10106000021639F01FBA20BD0FB6F894FA9AF99A11
:081070000FBE0895F894FFCFB4
:1010780048656C6C6F0052455345543F3F3F3F3FB6
:10108800004E6F00596573003E0054656D70310065
:1010980054656D70320054656D70330074333320BD
:1010A80000743020006B200074332000746E200020
:1010B800747020007473200052656C61793100529D
:1010C800656C6179320052656C6179330052656CE8
:0410D8006179340006
:00000001FF
