:100000000C9434000C9451000C9451000C94510049
:100010000C9451000C9451000C9451000C9451001C
:100020000C9451000C9451000C9451000C9451000C
:100030000C9451000C9451000C9451000C945100FC
:100040000C9451000C9451000C9451000C945100EC
:100050000C9451000C9451000C9451000C945100DC
:100060000C9451000C94510011241FBECFEFD4E02A
:10007000DEBFCDBF11E0A0E0B1E0ECE2F3E102C0F1
:1000800005900D92AA38B107D9F711E0AAE8B1E0BE
:1000900001C01D92A03DB107E1F70E94AC030C9492
:1000A00094090C940000682FF8948FE891E00E9466
:1000B000E90581E080939A0110928A0110928B01E8
:1000C00010928C0110928D01089510929A017894EB
:1000D00008958230A1F0833028F4882351F08130D4
:1000E000E9F40AC0843089F0843060F08530B1F4DE
:1000F00011C080E091E00BC088E091E008C084E18D
:1001000091E005C084E291E002C080E391E00E94AA
:10011000250508958DE391E00E9425050895EF924D
:10012000FF920F931F93E0908A01F0908B01009152
:100130008C0110918D01C801B70124E630E040E048
:1001400050E00E943909611571058105910571F032
:100150000894E11CF11C011D111DE0928A01F0922E
:100160008B0100938C0110938D017DC180919B01C7
:10017000823091F0833030F4882381F0813009F0AF
:1001800035C111C0843009F472C0843008F44AC00B
:10019000853009F02BC111C110E037C01092A001C9
:1001A0000E941E0420C10E9429048823F1F081E0EE
:1001B0000E944D0480E00AC02FEF33ED40E3215050
:1001C00030404040E1F700C000008F5F9091AA01ED
:1001D000891790F380E00E94420482E00E94380474
:1001E000882309F400C182E0FFC083E0FDC08FEFE7
:1001F00093EDA0E381509040A040E1F700C00000E3
:100200000E942904882329F01F5F8091AF011817ED
:1002100070F30E942904882309F4E5C082E00E945B
:100220004D04E1C08091A001882309F0DCC00E9448
:100230003104882309F0BBC010E00EC02FEF33ED6E
:1002400040E3215030404040E1F700C000000E94F0
:100250002904882329F41F5F8091A901181770F3DE
:100260000E942904882309F0BEC084E0BDC082E05A
:100270000E94420410E07DC02FEF33ED40E3215097
:1002800030404040E1F700C000008F5F9091AA012C
:10029000891790F384E00E94420480E00AC02FEFA7
:1002A00033ED40E3215030404040E1F700C0000012
:1002B0008F5F9091AA01891790F384E00E944D040A
:1002C00083E00E94420460E0812F90E00AC02FEF9B
:1002D00033ED40E3215030404040E1F700C00000E2
:1002E0006F5F462F50E02091AC01DC01A20FB11DE1
:1002F0004A175B0764F383E00E944D0480E00AC064
:100300002FEF33ED40E3215030404040E1F700C093
:1003100000008F5F9091AA01891790F385E00E94F9
:10032000420480E00AC02FEF33ED40E3215030401B
:100330004040E1F700C000008F5F9091AA0189174B
:1003400090F385E00E944D0480E00AC02FEF33ED6A
:1003500040E3215030404040E1F700C000008F5F93
:100360009091AD01891790F30E943104882339F4EC
:100370001F5F8091AB01181710F480E087CF0E94B7
:1003800031048823B1F080E00AC02FEF33ED40E361
:10039000215030404040E1F700C000008F5F909155
:1003A000AE01891790F30E9429048823E1F485E0C7
:1003B0001BC081E08093A00117C080E00E944D0423
:1003C00080E00AC02FEF33ED40E321503040404041
:1003D000E1F700C000008F5F9091AA01891790F3A8
:1003E00081E00E94420481E080939B010E94FF040F
:1003F00080919B010E94690080E10E9437058091F5
:10040000A001882321F08BE491E00E94250586E17C
:100410000E94370580E00E943804882321F081E59E
:1004200091E00E9425058AE10E94370581E00E9443
:100430003804882321F085E591E00E9425050E947B
:100440000A0581E090E0A0E0B0E080938A019093FB
:100450008B01A0938C01B0938D018FE891E00197FF
:10046000F1F700C000001F910F91FF90EF900895E9
:1004700010929C0110929D0110929E0110929F017A
:100480001092A1011092A2011092A3011092A40156
:100490001092A5011092A6011092A7011092A80136
:1004A00038983A983998409A429A419A08958FE834
:1004B00091E00E949D0710928A0110928B01109288
:1004C0008C0110928D0108958FE891E00E948A07B7
:1004D00010928A0110928B0110928C0110928D0162
:1004E00008958FE891E00E94F60610928A0110921A
:1004F0008B0110928C0110928D0108958FE891E08C
:100500000E94810710928A0110928B0110928C0137
:1005100010928D01089580919A01882321F481E041
:100520000E94530004C08FE891E00E94BD07109222
:100530008A0110928B0110928C0110928D01089506
:1005400080919A01882319F40E94530002C00E94EE
:10055000650010928A0110928B0110928C0110920A
:100560008D010895309915C080919C0190919D0155
:10057000A0919E01B0919F01B7FD0BC00196A11DF6
:10058000B11D80939C0190939D01A0939E01B09317
:100590009F01329915C08091A1019091A201A09173
:1005A000A301B091A401B7FD0BC00196A11DB11D1F
:1005B0008093A1019093A201A093A301B093A40101
:1005C000319915C08091A5019091A601A091A70134
:1005D000B091A801B7FD0BC00196A11DB11D80937C
:1005E000A5019093A601A093A701B093A8018091C3
:1005F0009C0190919D01A0919E01B0919F01893E27
:1006000023E0920720E0A20720E0B2076CF00E94EE
:100610007E028FEF9FEFDC0180939C0190939D0100
:10062000A0939E01B0939F018091A1019091A2019E
:10063000A091A301B091A401893E23E0920720E09C
:10064000A20720E0B2076CF00E948B028FEF9FEFB1
:10065000DC018093A1019093A201A093A301B09328
:10066000A4018091A5019091A601A091A701B0914C
:10067000A801893E23E0920720E0A20720E0B2070C
:100680006CF00E94A0028FEF9FEFDC018093A50128
:100690009093A601A093A701B093A801309B1DC021
:1006A00080919C0190919D01A0919E01B0919F012C
:1006B0000197A109B109873E23E0920720E0A20734
:1006C00020E0B20710F40E94570210929C01109291
:1006D0009D0110929E0110929F01329B1DC080913E
:1006E000A1019091A201A091A301B091A401019751
:1006F000A109B109873E23E0920720E0A20720E08C
:10070000B20710F40E9464021092A1011092A2019B
:100710001092A3011092A401319B1DC08091A501EC
:100720009091A601A091A701B091A8010197A109FC
:10073000B109873E23E0920720E0A20720E0B2073C
:1007400010F40E9471021092A5011092A60110925D
:10075000A7011092A80108956F927F928F929F92A5
:10076000AF92BF92CF92DF92EF92FF920F931F93BF
:1007700014B80E949D040E9438028FE891E069EA53
:1007800071E00E94E50589EA91E00E94F0070E946D
:100790001E0410929B015C9A9CE2A92E91E0B92E56
:1007A000C12CD12C81E0682E712C812C912C0E94BF
:1007B000B2028FE99FE00197F1F700C0000080913D
:1007C0009A01882319F0813091F703C00E948F00AD
:1007D000EECFE0908A01F0908B0100918C01109196
:1007E0008D01C801B701A60195010E943909611563
:1007F00071058105910571F00894E11CF11C011D42
:10080000111DE0928A01F0928B0100938C011093EC
:100810008D01CDCF8FE891E00E94E90660928A01B8
:1008200070928B0180928C0190928D01C0CF28989C
:1008300029982A982B982C982D980895209A219AD7
:10084000229A239A249A259A0E9417043B983C984E
:10085000089596B196959695969581E090FD80E0E5
:10086000089596B192959F7081E090FD80E0089583
:1008700023B130E002C0359527958A95E2F7822FA3
:100880008170089595B121E030E002C0220F331F3E
:100890008A95E2F7922B95B9089595B121E030E061
:1008A00002C0220F331F8A95E2F72095292325B92C
:1008B00008955E989BB1907F9BB92BB1982F92952C
:1008C0009F70922B9BB95D9AEFE9FFE03197F1F7AA
:1008D00000C000005D98EFEBFDE53197F1F700C037
:1008E00000009BB1907F9BB99BB18F70892B8BB916
:1008F0005D9A8FE99FE00197F1F700C000005D98D5
:1009000008955F9A0E94590408955F980E945904BF
:100910008FEB9DE50197F1F700C00000089580314D
:1009200018F0805190EC01C090E8890F0E94850476
:10093000089581E00E94850408958FEF8AB91BB85D
:100940008FEF96E7A1E081509040A040E1F700C012
:1009500000005F985E988BB1807F8BB98BB183600C
:100960008BB9AFE1BEE41197F1F700C000008BB185
:10097000807F8BB98BB183608BB987EE93E0019751
:10098000F1F700C000008BB1807F8BB98BB1836021
:100990008BB9AFE1BEE41197F1F700C000008BB155
:1009A000807F8BB9599A5D9A8FEB9DE50197F1F79E
:1009B00000C000005D9888E20E94850488E00E94E3
:1009C000850481E00E94850486E00E9485048CE015
:1009D0000E9485040895EF92FF92CF93DF93E82E53
:1009E000E7017E01F92EE70102C00E94810489918E
:1009F0008823D9F7DF91CF91FF90EF90089580EB96
:100A000091E060E270E040E250E00E945B091092E9
:100A10008E010895CF93DF9380E00E948F04C0EB96
:100A2000D1E089910E94810481E0C03CD807C9F7D8
:100A300080E10E948F0489910E94810481E0C03D81
:100A4000D807C9F7DF91CF910895282F392FD90101
:100A50000AC090918E01E92FF0E0E055FE4F8083AF
:100A60009F5F90938E018D91882399F708958093CD
:100A70008E0108950F931F93DF93CF9300D000D082
:100A800000D0CDB7DEB7009761F480918E01E82FDA
:100A9000F0E0E055FE4F90E390838F5F80938E01EE
:100AA00036C097FF0EC020918E01E22FF0E0E05596
:100AB000FE4F3DE230832F5F20938E01909581950C
:100AC0009F4FFE01319620E030E00AE010E0B801CF
:100AD0000E94260981932F5F3F4FCB010097B9F702
:100AE00060918E01CE010196FC01E20FF31F462FAB
:100AF00008C0A42FB0E0A055BE4F5291505D5C934A
:100B00004F5FE817F907A9F7260F20938E01269665
:100B10000FB6F894DEBF0FBECDBFCF91DF911F910E
:100B20000F910895EF92FF920F931F937B018C0119
:100B300020E030E0A9010E940A0890918E0187FF11
:100B40000EC0E92FF0E0E055FE4F8DE280839F5FFD
:100B500090938E0117FB109517F9109509C0E92F96
:100B6000F0E0E055FE4F8BE280839F5F90938E0113
:100B7000C801B7010E940E08DC01CB010E943A05B2
:100B800080918E01E82FF0E0E055FE4F9EE29083C9
:100B90008F5F80938E01C801B70120E030E040E212
:100BA00051E40E9487080E940E08CB016AE070E0C1
:100BB0000E9412090E943A051F910F91FF90EF9039
:100BC000089587E0089583E00895FC0172876187A6
:100BD0000895FC01608311821282138216820895A7
:100BE000CF93DF93EC010E94FF0481E00E94370560
:100BF00089E591E00E94250581E10E94370584E6A0
:100C000091E00E94250589E10E94370587E691E081
:100C10000E9425058981882319F0813031F402C0B2
:100C200080E101C088E10E9437058BE691E00E94D7
:100C300025050E940A05DF91CF910895CF93DF9398
:100C4000EC0189859A8598878F8381E09E81911137
:100C500080E08E830E94FF048C81843008F04BC0BA
:100C60008E81882319F48D81813069F081E00E94A2
:100C700037058DE691E00E942505EF81F88580819A
:100C800090E00E943A058E81882319F48D8182308C
:100C900069F089E00E94370582E791E00E9425050E
:100CA000EF81F885818190E00E943A058E8188234A
:100CB00019F48D81833069F081E10E94370586E760
:100CC00091E00E942505EF81F885828190E00E94E5
:100CD0003A058E81882321F48D81843009F446C041
:100CE00089E10E94370589E791E00E942505EF819F
:100CF000F885838138C08830C8F58E81882319F43F
:100D00008D81853069F081E00E9437058DE791E0A3
:100D10000E942505EF81F885848190E00E943A05C4
:100D20008E81882319F48D81863069F089E00E94D4
:100D3000370581E891E00E942505EF81F8858581DE
:100D400090E00E943A058E81882319F48D818730C6
:100D500069F081E10E94370585E891E00E94250550
:100D6000EF81F885868190E00E943A058C8185307C
:100D700011F1863070F4823001F1833028F4882339
:100D8000C1F08130E9F417C0833089F08430C1F4B8
:100D900010C0883071F0893028F4863071F08730C7
:100DA00079F405C0893039F08A3051F406C088E101
:100DB00005C080E003C088E001C080E10E943705E3
:100DC0008BE691E00E9425050E940A05DF91CF91F4
:100DD0000895FC012081222319F0213031F403C051
:100DE0000E941E0608950E94F0050895CF93DF9398
:100DF000EC018881882369F08130B9F489859A856E
:100E00000E94FA0782E0888319821A821B821E825E
:100E10000CC08D81882321F48C818F5F8D8305C068
:100E20001D8289859A850E94F307DF91CF910895ED
:100E3000FC01442311F481E001C08AE095819130E6
:100E400041F4A781B085869F202D11249C91920F9B
:100E50009C939581923061F4A781B085869F202D67
:100E6000112411969C911197920F11969C931197B2
:100E70009581933061F4A781B085869F202D112440
:100E800012969C911297920F12969C9312979581AD
:100E9000943061F4A781B085869F202D112413968C
:100EA0009C911397920F13969C931397958195306D
:100EB00061F4A781B085869F202D112414969C9102
:100EC0001497920F14969C9314979581963061F421
:100ED000A781B085869F202D112415969C9115978A
:100EE000920F15969C9315979581973049F407803A
:100EF000F085E02D869F602D11249681960F9683B4
:100F00000895FC012081222321F46FEF41E00E942B
:100F100018070895FC018081882371F48581882356
:100F200031F484818F5F8483873009F41482CF0188
:100F300061E040E00E9418070895FC018081882349
:100F400059F08130C9F48181882311F482E08183D2
:100F500081818150818308958581882341F4848132
:100F6000882311F487E08483848181508483CF01B6
:100F70006FEF40E00E9418070895FC0180818823EC
:100F800041F0823059F481E080831182148215820D
:100F90000895CF0161E041E00E9418070895CF93C2
:100FA000DF93EC010E94990482E088831982DF912B
:100FB000CF910895FC0110821182628343831482D1
:100FC00015820895FC0181E08083118214821582CC
:100FD000089560E070E047E050E00E9462090895E3
:100FE0000E94E907089560E070E047E050E00E9449
:100FF00072090895FC018CE3808391E0918393E072
:10100000928392E09383948385838683CF010E94A9
:10101000F30708952FD008F481E0089557D088F0A1
:101020009F5790F0B92F9927B751A0F0D1F0660FD4
:10103000771F881F991F1AF0BA95C9F712C0B130EF
:1010400081F05ED0B1E008955BC0672F782F8827CC
:10105000B85F39F0B93FCCF3869577956795B3952E
:10106000D9F73EF490958095709561957F4F8F4F9D
:101070009F4F0895990F0008550FAA0BE0E8FEEF67
:1010800016161706E807F907C0F012161306E4074C
:10109000F50798F0621B730B840B950B39F40A2645
:1010A00061F0232B242B252B21F408950A2609F423
:1010B000A140A6958FEF811D811D089557FD905881
:1010C000440F551F59F05F3F71F04795880F97FB0C
:1010D000991F61F09F3F79F08795089512161306C6
:1010E0001406551FF2CF4695F1DF08C016161706F5
:1010F0001806991FF1CF869571056105089408952A
:10110000E894BB2766277727CB0197F908950BD082
:1011100078C069D028F06ED018F0952309F05AC035
:101120005FC01124EECFCADFA0F3959FD1F3950FD6
:1011300050E0551F629FF001729FBB27F00DB11D5B
:10114000639FAA27F00DB11DAA1F649F6627B00DEB
:10115000A11D661F829F2227B00DA11D621F739FD4
:10116000B00DA11D621F839FA00D611D221F749FE2
:101170003327A00D611D231F849F600D211D822F29
:10118000762F6A2F11249F5750408AF0E1F0882370
:101190004AF0EE0FFF1FBB1F661F771F881F91507D
:1011A0005040A9F79E3F510570F014C0AACF5F3F91
:1011B000ECF3983EDCF3869577956795B795F795B0
:1011C000E7959F5FC1F7FE2B880F911D9695879538
:1011D00097F9089597F99F6780E870E060E00895B7
:1011E0009FEF80EC089500240A941616170618063F
:1011F0000906089500240A9412161306140605061B
:101200000895092E0394000C11F4882352F0BB0FAB
:1012100040F4BF2B11F460FF04C06F5F7F4F8F4F0E
:101220009F4F0895AA1BBB1B51E107C0AA1FBB1FFC
:10123000A617B70710F0A61BB70B881F991F5A9562
:10124000A9F780959095BC01CD01089597FB092ED3
:1012500007260AD077FD04D0E5DF06D000201AF477
:10126000709561957F4F0895F6F7909581959F4F02
:101270000895A1E21A2EAA1BBB1BFD010DC0AA1FD7
:10128000BB1FEE1FFF1FA217B307E407F50720F0EF
:10129000A21BB30BE40BF50B661F771F881F991F6A
:1012A0001A9469F760957095809590959B01AC01B3
:1012B000BD01CF010895DC0101C06D934150504044
:1012C000E0F70895DC01CB01FC01F999FECF06C0DF
:1012D000F2BDE1BDF89A319600B40D9241505040F4
:1012E000B8F70895DC01A40FB51F4150504048F0F5
:1012F000CB01840F951F2E910E94830941505040CD
:10130000D0F70895262FF999FECF92BD81BDF89AA6
:10131000019700B4021639F01FBA20BD0FB6F89439
:0C132000FA9AF99A0FBE0895F894FFCFD6
:10132C0057535F494E49540057535F4E45544348F9
:10133C0045434B0057535F47454E5F434F4F4C441B
:10134C004F574E0057535F4E45545F574149540019
:10135C0057535F47454E5F53544152540057535FA8
:10136C0047454E5F535749544348004641554C54EA
:10137C00004E45540047454E0052455345543F3F9F
:10138C003F3F3F004E6F00596573003E007433338E
:10139C002000743020006B200074332000746E2009
:0A13AC00007470200074732000002C
:00000001FF
